{
	"task1/mergeArry.sol": {
		"mergeArry": {
			"abi": [
				{
					"inputs": [
						{
							"internalType": "int256[]",
							"name": "arry1",
							"type": "int256[]"
						},
						{
							"internalType": "int256[]",
							"name": "arry2",
							"type": "int256[]"
						}
					],
					"name": "mergeArrys",
					"outputs": [
						{
							"internalType": "int256[]",
							"name": "",
							"type": "int256[]"
						}
					],
					"stateMutability": "pure",
					"type": "function"
				}
			],
			"devdoc": {
				"kind": "dev",
				"methods": {},
				"version": 1
			},
			"evm": {
				"assembly": "    /* \"task1/mergeArry.sol\":58:1191  contract mergeArry {... */\n  mstore(0x40, 0x80)\n  callvalue\n  dup1\n  iszero\n  tag_1\n  jumpi\n  revert(0x00, 0x00)\ntag_1:\n  pop\n  dataSize(sub_0)\n  dup1\n  dataOffset(sub_0)\n  0x00\n  codecopy\n  0x00\n  return\nstop\n\nsub_0: assembly {\n        /* \"task1/mergeArry.sol\":58:1191  contract mergeArry {... */\n      mstore(0x40, 0x80)\n      callvalue\n      dup1\n      iszero\n      tag_1\n      jumpi\n      revert(0x00, 0x00)\n    tag_1:\n      pop\n      jumpi(tag_2, lt(calldatasize, 0x04))\n      shr(0xe0, calldataload(0x00))\n      dup1\n      0x78c72044\n      eq\n      tag_3\n      jumpi\n    tag_2:\n      revert(0x00, 0x00)\n        /* \"task1/mergeArry.sol\":92:1188  function mergeArrys(int[] calldata arry1, int[] calldata arry2) public pure returns (int[] memory) {... */\n    tag_3:\n      tag_4\n      0x04\n      dup1\n      calldatasize\n      sub\n      dup2\n      add\n      swap1\n      tag_5\n      swap2\n      swap1\n      tag_6\n      jump\t// in\n    tag_5:\n      tag_7\n      jump\t// in\n    tag_4:\n      mload(0x40)\n      tag_8\n      swap2\n      swap1\n      tag_9\n      jump\t// in\n    tag_8:\n      mload(0x40)\n      dup1\n      swap2\n      sub\n      swap1\n      return\n    tag_7:\n        /* \"task1/mergeArry.sol\":177:189  int[] memory */\n      0x60\n        /* \"task1/mergeArry.sol\":202:229  int256[] memory mergedArray */\n      dup1\n        /* \"task1/mergeArry.sol\":303:312  uint len1 */\n      0x00\n        /* \"task1/mergeArry.sol\":315:320  arry1 */\n      dup7\n      dup7\n        /* \"task1/mergeArry.sol\":315:327  arry1.length */\n      swap1\n      pop\n        /* \"task1/mergeArry.sol\":303:327  uint len1 = arry1.length */\n      swap1\n      pop\n        /* \"task1/mergeArry.sol\":338:347  uint len2 */\n      0x00\n        /* \"task1/mergeArry.sol\":350:355  arry2 */\n      dup6\n      dup6\n        /* \"task1/mergeArry.sol\":350:362  arry2.length */\n      swap1\n      pop\n        /* \"task1/mergeArry.sol\":338:362  uint len2 = arry2.length */\n      swap1\n      pop\n        /* \"task1/mergeArry.sol\":375:381  uint i */\n      0x00\n        /* \"task1/mergeArry.sol\":384:385  0 */\n      0x00\n        /* \"task1/mergeArry.sol\":375:385  uint i = 0 */\n      swap1\n      pop\n        /* \"task1/mergeArry.sol\":423:429  uint j */\n      0x00\n        /* \"task1/mergeArry.sol\":432:433  0 */\n      0x00\n        /* \"task1/mergeArry.sol\":423:433  uint j = 0 */\n      swap1\n      pop\n        /* \"task1/mergeArry.sol\":471:477  uint k */\n      0x00\n        /* \"task1/mergeArry.sol\":480:481  0 */\n      0x00\n        /* \"task1/mergeArry.sol\":471:481  uint k = 0 */\n      swap1\n      pop\n        /* \"task1/mergeArry.sol\":527:796  while (i < len1 && j < len2) {... */\n    tag_11:\n        /* \"task1/mergeArry.sol\":538:542  len1 */\n      dup5\n        /* \"task1/mergeArry.sol\":534:535  i */\n      dup4\n        /* \"task1/mergeArry.sol\":534:542  i < len1 */\n      lt\n        /* \"task1/mergeArry.sol\":534:554  i < len1 && j < len2 */\n      dup1\n      iszero\n      tag_13\n      jumpi\n      pop\n        /* \"task1/mergeArry.sol\":550:554  len2 */\n      dup4\n        /* \"task1/mergeArry.sol\":546:547  j */\n      dup3\n        /* \"task1/mergeArry.sol\":546:554  j < len2 */\n      lt\n        /* \"task1/mergeArry.sol\":534:554  i < len1 && j < len2 */\n    tag_13:\n        /* \"task1/mergeArry.sol\":527:796  while (i < len1 && j < len2) {... */\n      iszero\n      tag_12\n      jumpi\n        /* \"task1/mergeArry.sol\":587:592  arry2 */\n      dup9\n      dup9\n        /* \"task1/mergeArry.sol\":593:594  j */\n      dup4\n        /* \"task1/mergeArry.sol\":587:595  arry2[j] */\n      dup2\n      dup2\n      lt\n      tag_14\n      jumpi\n      tag_15\n      tag_16\n      jump\t// in\n    tag_15:\n    tag_14:\n      swap1\n      pop\n      0x20\n      mul\n      add\n      calldataload\n        /* \"task1/mergeArry.sol\":575:580  arry1 */\n      dup12\n      dup12\n        /* \"task1/mergeArry.sol\":581:582  i */\n      dup6\n        /* \"task1/mergeArry.sol\":575:583  arry1[i] */\n      dup2\n      dup2\n      lt\n      tag_17\n      jumpi\n      tag_18\n      tag_16\n      jump\t// in\n    tag_18:\n    tag_17:\n      swap1\n      pop\n      0x20\n      mul\n      add\n      calldataload\n        /* \"task1/mergeArry.sol\":575:595  arry1[i] <= arry2[j] */\n      sgt\n        /* \"task1/mergeArry.sol\":571:767  if (arry1[i] <= arry2[j]) {... */\n      tag_19\n      jumpi\n        /* \"task1/mergeArry.sol\":633:638  arry1 */\n      dup11\n      dup11\n        /* \"task1/mergeArry.sol\":639:640  i */\n      dup5\n        /* \"task1/mergeArry.sol\":633:641  arry1[i] */\n      dup2\n      dup2\n      lt\n      tag_20\n      jumpi\n      tag_21\n      tag_16\n      jump\t// in\n    tag_21:\n    tag_20:\n      swap1\n      pop\n      0x20\n      mul\n      add\n      calldataload\n        /* \"task1/mergeArry.sol\":616:627  mergedArray */\n      dup7\n        /* \"task1/mergeArry.sol\":628:629  k */\n      dup3\n        /* \"task1/mergeArry.sol\":616:630  mergedArray[k] */\n      dup2\n      mload\n      dup2\n      lt\n      tag_22\n      jumpi\n      tag_23\n      tag_16\n      jump\t// in\n    tag_23:\n    tag_22:\n      0x20\n      mul\n      0x20\n      add\n      add\n        /* \"task1/mergeArry.sol\":616:641  mergedArray[k] = arry1[i] */\n      dup2\n      dup2\n      mstore\n      pop\n      pop\n        /* \"task1/mergeArry.sol\":660:663  i++ */\n      dup3\n      dup1\n      tag_24\n      swap1\n      tag_25\n      jump\t// in\n    tag_24:\n      swap4\n      pop\n      pop\n        /* \"task1/mergeArry.sol\":571:767  if (arry1[i] <= arry2[j]) {... */\n      jump(tag_26)\n    tag_19:\n        /* \"task1/mergeArry.sol\":721:726  arry2 */\n      dup9\n      dup9\n        /* \"task1/mergeArry.sol\":727:728  j */\n      dup4\n        /* \"task1/mergeArry.sol\":721:729  arry2[j] */\n      dup2\n      dup2\n      lt\n      tag_27\n      jumpi\n      tag_28\n      tag_16\n      jump\t// in\n    tag_28:\n    tag_27:\n      swap1\n      pop\n      0x20\n      mul\n      add\n      calldataload\n        /* \"task1/mergeArry.sol\":704:715  mergedArray */\n      dup7\n        /* \"task1/mergeArry.sol\":716:717  k */\n      dup3\n        /* \"task1/mergeArry.sol\":704:718  mergedArray[k] */\n      dup2\n      mload\n      dup2\n      lt\n      tag_29\n      jumpi\n      tag_30\n      tag_16\n      jump\t// in\n    tag_30:\n    tag_29:\n      0x20\n      mul\n      0x20\n      add\n      add\n        /* \"task1/mergeArry.sol\":704:729  mergedArray[k] = arry2[j] */\n      dup2\n      dup2\n      mstore\n      pop\n      pop\n        /* \"task1/mergeArry.sol\":748:751  j++ */\n      dup2\n      dup1\n      tag_31\n      swap1\n      tag_25\n      jump\t// in\n    tag_31:\n      swap3\n      pop\n      pop\n        /* \"task1/mergeArry.sol\":571:767  if (arry1[i] <= arry2[j]) {... */\n    tag_26:\n        /* \"task1/mergeArry.sol\":781:784  k++ */\n      dup1\n      dup1\n      tag_32\n      swap1\n      tag_25\n      jump\t// in\n    tag_32:\n      swap2\n      pop\n      pop\n        /* \"task1/mergeArry.sol\":527:796  while (i < len1 && j < len2) {... */\n      jump(tag_11)\n    tag_12:\n        /* \"task1/mergeArry.sol\":868:973  while (i < len1) {... */\n    tag_33:\n        /* \"task1/mergeArry.sol\":879:883  len1 */\n      dup5\n        /* \"task1/mergeArry.sol\":875:876  i */\n      dup4\n        /* \"task1/mergeArry.sol\":875:883  i < len1 */\n      lt\n        /* \"task1/mergeArry.sol\":868:973  while (i < len1) {... */\n      iszero\n      tag_34\n      jumpi\n        /* \"task1/mergeArry.sol\":917:922  arry1 */\n      dup11\n      dup11\n        /* \"task1/mergeArry.sol\":923:924  i */\n      dup5\n        /* \"task1/mergeArry.sol\":917:925  arry1[i] */\n      dup2\n      dup2\n      lt\n      tag_35\n      jumpi\n      tag_36\n      tag_16\n      jump\t// in\n    tag_36:\n    tag_35:\n      swap1\n      pop\n      0x20\n      mul\n      add\n      calldataload\n        /* \"task1/mergeArry.sol\":900:911  mergedArray */\n      dup7\n        /* \"task1/mergeArry.sol\":912:913  k */\n      dup3\n        /* \"task1/mergeArry.sol\":900:914  mergedArray[k] */\n      dup2\n      mload\n      dup2\n      lt\n      tag_37\n      jumpi\n      tag_38\n      tag_16\n      jump\t// in\n    tag_38:\n    tag_37:\n      0x20\n      mul\n      0x20\n      add\n      add\n        /* \"task1/mergeArry.sol\":900:925  mergedArray[k] = arry1[i] */\n      dup2\n      dup2\n      mstore\n      pop\n      pop\n        /* \"task1/mergeArry.sol\":940:943  i++ */\n      dup3\n      dup1\n      tag_39\n      swap1\n      tag_25\n      jump\t// in\n    tag_39:\n      swap4\n      pop\n      pop\n        /* \"task1/mergeArry.sol\":958:961  k++ */\n      dup1\n      dup1\n      tag_40\n      swap1\n      tag_25\n      jump\t// in\n    tag_40:\n      swap2\n      pop\n      pop\n        /* \"task1/mergeArry.sol\":868:973  while (i < len1) {... */\n      jump(tag_33)\n    tag_34:\n        /* \"task1/mergeArry.sol\":1045:1150  while (j < len2) {... */\n    tag_41:\n        /* \"task1/mergeArry.sol\":1056:1060  len2 */\n      dup4\n        /* \"task1/mergeArry.sol\":1052:1053  j */\n      dup3\n        /* \"task1/mergeArry.sol\":1052:1060  j < len2 */\n      lt\n        /* \"task1/mergeArry.sol\":1045:1150  while (j < len2) {... */\n      iszero\n      tag_42\n      jumpi\n        /* \"task1/mergeArry.sol\":1094:1099  arry2 */\n      dup9\n      dup9\n        /* \"task1/mergeArry.sol\":1100:1101  j */\n      dup4\n        /* \"task1/mergeArry.sol\":1094:1102  arry2[j] */\n      dup2\n      dup2\n      lt\n      tag_43\n      jumpi\n      tag_44\n      tag_16\n      jump\t// in\n    tag_44:\n    tag_43:\n      swap1\n      pop\n      0x20\n      mul\n      add\n      calldataload\n        /* \"task1/mergeArry.sol\":1077:1088  mergedArray */\n      dup7\n        /* \"task1/mergeArry.sol\":1089:1090  k */\n      dup3\n        /* \"task1/mergeArry.sol\":1077:1091  mergedArray[k] */\n      dup2\n      mload\n      dup2\n      lt\n      tag_45\n      jumpi\n      tag_46\n      tag_16\n      jump\t// in\n    tag_46:\n    tag_45:\n      0x20\n      mul\n      0x20\n      add\n      add\n        /* \"task1/mergeArry.sol\":1077:1102  mergedArray[k] = arry2[j] */\n      dup2\n      dup2\n      mstore\n      pop\n      pop\n        /* \"task1/mergeArry.sol\":1117:1120  j++ */\n      dup2\n      dup1\n      tag_47\n      swap1\n      tag_25\n      jump\t// in\n    tag_47:\n      swap3\n      pop\n      pop\n        /* \"task1/mergeArry.sol\":1135:1138  k++ */\n      dup1\n      dup1\n      tag_48\n      swap1\n      tag_25\n      jump\t// in\n    tag_48:\n      swap2\n      pop\n      pop\n        /* \"task1/mergeArry.sol\":1045:1150  while (j < len2) {... */\n      jump(tag_41)\n    tag_42:\n        /* \"task1/mergeArry.sol\":1169:1180  mergedArray */\n      dup6\n        /* \"task1/mergeArry.sol\":1162:1180  return mergedArray */\n      swap7\n      pop\n      pop\n      pop\n      pop\n      pop\n      pop\n      pop\n        /* \"task1/mergeArry.sol\":92:1188  function mergeArrys(int[] calldata arry1, int[] calldata arry2) public pure returns (int[] memory) {... */\n      swap5\n      swap4\n      pop\n      pop\n      pop\n      pop\n      jump\t// out\n        /* \"#utility.yul\":88:205   */\n    tag_50:\n        /* \"#utility.yul\":197:198   */\n      0x00\n        /* \"#utility.yul\":194:195   */\n      0x00\n        /* \"#utility.yul\":187:199   */\n      revert\n        /* \"#utility.yul\":211:328   */\n    tag_51:\n        /* \"#utility.yul\":320:321   */\n      0x00\n        /* \"#utility.yul\":317:318   */\n      0x00\n        /* \"#utility.yul\":310:322   */\n      revert\n        /* \"#utility.yul\":334:451   */\n    tag_52:\n        /* \"#utility.yul\":443:444   */\n      0x00\n        /* \"#utility.yul\":440:441   */\n      0x00\n        /* \"#utility.yul\":433:445   */\n      revert\n        /* \"#utility.yul\":457:574   */\n    tag_53:\n        /* \"#utility.yul\":566:567   */\n      0x00\n        /* \"#utility.yul\":563:564   */\n      0x00\n        /* \"#utility.yul\":556:568   */\n      revert\n        /* \"#utility.yul\":580:697   */\n    tag_54:\n        /* \"#utility.yul\":689:690   */\n      0x00\n        /* \"#utility.yul\":686:687   */\n      0x00\n        /* \"#utility.yul\":679:691   */\n      revert\n        /* \"#utility.yul\":719:1286   */\n    tag_55:\n        /* \"#utility.yul\":791:799   */\n      0x00\n        /* \"#utility.yul\":801:807   */\n      0x00\n        /* \"#utility.yul\":851:854   */\n      dup4\n        /* \"#utility.yul\":844:848   */\n      0x1f\n        /* \"#utility.yul\":836:842   */\n      dup5\n        /* \"#utility.yul\":832:849   */\n      add\n        /* \"#utility.yul\":828:855   */\n      slt\n        /* \"#utility.yul\":818:940   */\n      tag_74\n      jumpi\n        /* \"#utility.yul\":859:938   */\n      tag_75\n      tag_52\n      jump\t// in\n    tag_75:\n        /* \"#utility.yul\":818:940   */\n    tag_74:\n        /* \"#utility.yul\":972:978   */\n      dup3\n        /* \"#utility.yul\":959:979   */\n      calldataload\n        /* \"#utility.yul\":949:979   */\n      swap1\n      pop\n        /* \"#utility.yul\":1002:1020   */\n      0xffffffffffffffff\n        /* \"#utility.yul\":994:1000   */\n      dup2\n        /* \"#utility.yul\":991:1021   */\n      gt\n        /* \"#utility.yul\":988:1105   */\n      iszero\n      tag_76\n      jumpi\n        /* \"#utility.yul\":1024:1103   */\n      tag_77\n      tag_53\n      jump\t// in\n    tag_77:\n        /* \"#utility.yul\":988:1105   */\n    tag_76:\n        /* \"#utility.yul\":1138:1142   */\n      0x20\n        /* \"#utility.yul\":1130:1136   */\n      dup4\n        /* \"#utility.yul\":1126:1143   */\n      add\n        /* \"#utility.yul\":1114:1143   */\n      swap2\n      pop\n        /* \"#utility.yul\":1192:1195   */\n      dup4\n        /* \"#utility.yul\":1184:1188   */\n      0x20\n        /* \"#utility.yul\":1176:1182   */\n      dup3\n        /* \"#utility.yul\":1172:1189   */\n      mul\n        /* \"#utility.yul\":1162:1170   */\n      dup4\n        /* \"#utility.yul\":1158:1190   */\n      add\n        /* \"#utility.yul\":1155:1196   */\n      gt\n        /* \"#utility.yul\":1152:1280   */\n      iszero\n      tag_78\n      jumpi\n        /* \"#utility.yul\":1199:1278   */\n      tag_79\n      tag_54\n      jump\t// in\n    tag_79:\n        /* \"#utility.yul\":1152:1280   */\n    tag_78:\n        /* \"#utility.yul\":719:1286   */\n      swap3\n      pop\n      swap3\n      swap1\n      pop\n      jump\t// out\n        /* \"#utility.yul\":1292:2222   */\n    tag_6:\n        /* \"#utility.yul\":1412:1418   */\n      0x00\n        /* \"#utility.yul\":1420:1426   */\n      0x00\n        /* \"#utility.yul\":1428:1434   */\n      0x00\n        /* \"#utility.yul\":1436:1442   */\n      0x00\n        /* \"#utility.yul\":1485:1487   */\n      0x40\n        /* \"#utility.yul\":1473:1482   */\n      dup6\n        /* \"#utility.yul\":1464:1471   */\n      dup8\n        /* \"#utility.yul\":1460:1483   */\n      sub\n        /* \"#utility.yul\":1456:1488   */\n      slt\n        /* \"#utility.yul\":1453:1572   */\n      iszero\n      tag_81\n      jumpi\n        /* \"#utility.yul\":1491:1570   */\n      tag_82\n      tag_50\n      jump\t// in\n    tag_82:\n        /* \"#utility.yul\":1453:1572   */\n    tag_81:\n        /* \"#utility.yul\":1639:1640   */\n      0x00\n        /* \"#utility.yul\":1628:1637   */\n      dup6\n        /* \"#utility.yul\":1624:1641   */\n      add\n        /* \"#utility.yul\":1611:1642   */\n      calldataload\n        /* \"#utility.yul\":1669:1687   */\n      0xffffffffffffffff\n        /* \"#utility.yul\":1661:1667   */\n      dup2\n        /* \"#utility.yul\":1658:1688   */\n      gt\n        /* \"#utility.yul\":1655:1772   */\n      iszero\n      tag_83\n      jumpi\n        /* \"#utility.yul\":1691:1770   */\n      tag_84\n      tag_51\n      jump\t// in\n    tag_84:\n        /* \"#utility.yul\":1655:1772   */\n    tag_83:\n        /* \"#utility.yul\":1804:1883   */\n      tag_85\n        /* \"#utility.yul\":1875:1882   */\n      dup8\n        /* \"#utility.yul\":1866:1872   */\n      dup3\n        /* \"#utility.yul\":1855:1864   */\n      dup9\n        /* \"#utility.yul\":1851:1873   */\n      add\n        /* \"#utility.yul\":1804:1883   */\n      tag_55\n      jump\t// in\n    tag_85:\n        /* \"#utility.yul\":1786:1883   */\n      swap5\n      pop\n      swap5\n      pop\n        /* \"#utility.yul\":1582:1893   */\n      pop\n        /* \"#utility.yul\":1960:1962   */\n      0x20\n        /* \"#utility.yul\":1949:1958   */\n      dup6\n        /* \"#utility.yul\":1945:1963   */\n      add\n        /* \"#utility.yul\":1932:1964   */\n      calldataload\n        /* \"#utility.yul\":1991:2009   */\n      0xffffffffffffffff\n        /* \"#utility.yul\":1983:1989   */\n      dup2\n        /* \"#utility.yul\":1980:2010   */\n      gt\n        /* \"#utility.yul\":1977:2094   */\n      iszero\n      tag_86\n      jumpi\n        /* \"#utility.yul\":2013:2092   */\n      tag_87\n      tag_51\n      jump\t// in\n    tag_87:\n        /* \"#utility.yul\":1977:2094   */\n    tag_86:\n        /* \"#utility.yul\":2126:2205   */\n      tag_88\n        /* \"#utility.yul\":2197:2204   */\n      dup8\n        /* \"#utility.yul\":2188:2194   */\n      dup3\n        /* \"#utility.yul\":2177:2186   */\n      dup9\n        /* \"#utility.yul\":2173:2195   */\n      add\n        /* \"#utility.yul\":2126:2205   */\n      tag_55\n      jump\t// in\n    tag_88:\n        /* \"#utility.yul\":2108:2205   */\n      swap3\n      pop\n      swap3\n      pop\n        /* \"#utility.yul\":1903:2215   */\n      pop\n        /* \"#utility.yul\":1292:2222   */\n      swap3\n      swap6\n      swap2\n      swap5\n      pop\n      swap3\n      pop\n      jump\t// out\n        /* \"#utility.yul\":2228:2341   */\n    tag_56:\n        /* \"#utility.yul\":2294:2300   */\n      0x00\n        /* \"#utility.yul\":2328:2333   */\n      dup2\n        /* \"#utility.yul\":2322:2334   */\n      mload\n        /* \"#utility.yul\":2312:2334   */\n      swap1\n      pop\n        /* \"#utility.yul\":2228:2341   */\n      swap2\n      swap1\n      pop\n      jump\t// out\n        /* \"#utility.yul\":2347:2530   */\n    tag_57:\n        /* \"#utility.yul\":2445:2456   */\n      0x00\n        /* \"#utility.yul\":2479:2485   */\n      dup3\n        /* \"#utility.yul\":2474:2477   */\n      dup3\n        /* \"#utility.yul\":2467:2486   */\n      mstore\n        /* \"#utility.yul\":2519:2523   */\n      0x20\n        /* \"#utility.yul\":2514:2517   */\n      dup3\n        /* \"#utility.yul\":2510:2524   */\n      add\n        /* \"#utility.yul\":2495:2524   */\n      swap1\n      pop\n        /* \"#utility.yul\":2347:2530   */\n      swap3\n      swap2\n      pop\n      pop\n      jump\t// out\n        /* \"#utility.yul\":2536:2667   */\n    tag_58:\n        /* \"#utility.yul\":2602:2606   */\n      0x00\n        /* \"#utility.yul\":2625:2628   */\n      dup2\n        /* \"#utility.yul\":2617:2628   */\n      swap1\n      pop\n        /* \"#utility.yul\":2655:2659   */\n      0x20\n        /* \"#utility.yul\":2650:2653   */\n      dup3\n        /* \"#utility.yul\":2646:2660   */\n      add\n        /* \"#utility.yul\":2638:2660   */\n      swap1\n      pop\n        /* \"#utility.yul\":2536:2667   */\n      swap2\n      swap1\n      pop\n      jump\t// out\n        /* \"#utility.yul\":2673:2749   */\n    tag_59:\n        /* \"#utility.yul\":2709:2716   */\n      0x00\n        /* \"#utility.yul\":2738:2743   */\n      dup2\n        /* \"#utility.yul\":2727:2743   */\n      swap1\n      pop\n        /* \"#utility.yul\":2673:2749   */\n      swap2\n      swap1\n      pop\n      jump\t// out\n        /* \"#utility.yul\":2755:2860   */\n    tag_60:\n        /* \"#utility.yul\":2830:2853   */\n      tag_94\n        /* \"#utility.yul\":2847:2852   */\n      dup2\n        /* \"#utility.yul\":2830:2853   */\n      tag_59\n      jump\t// in\n    tag_94:\n        /* \"#utility.yul\":2825:2828   */\n      dup3\n        /* \"#utility.yul\":2818:2854   */\n      mstore\n        /* \"#utility.yul\":2755:2860   */\n      pop\n      pop\n      jump\t// out\n        /* \"#utility.yul\":2866:3041   */\n    tag_61:\n        /* \"#utility.yul\":2933:2943   */\n      0x00\n        /* \"#utility.yul\":2954:2998   */\n      tag_96\n        /* \"#utility.yul\":2994:2997   */\n      dup4\n        /* \"#utility.yul\":2986:2992   */\n      dup4\n        /* \"#utility.yul\":2954:2998   */\n      tag_60\n      jump\t// in\n    tag_96:\n        /* \"#utility.yul\":3030:3034   */\n      0x20\n        /* \"#utility.yul\":3025:3028   */\n      dup4\n        /* \"#utility.yul\":3021:3035   */\n      add\n        /* \"#utility.yul\":3007:3035   */\n      swap1\n      pop\n        /* \"#utility.yul\":2866:3041   */\n      swap3\n      swap2\n      pop\n      pop\n      jump\t// out\n        /* \"#utility.yul\":3047:3159   */\n    tag_62:\n        /* \"#utility.yul\":3116:3120   */\n      0x00\n        /* \"#utility.yul\":3148:3152   */\n      0x20\n        /* \"#utility.yul\":3143:3146   */\n      dup3\n        /* \"#utility.yul\":3139:3153   */\n      add\n        /* \"#utility.yul\":3131:3153   */\n      swap1\n      pop\n        /* \"#utility.yul\":3047:3159   */\n      swap2\n      swap1\n      pop\n      jump\t// out\n        /* \"#utility.yul\":3193:3917   */\n    tag_63:\n        /* \"#utility.yul\":3310:3313   */\n      0x00\n        /* \"#utility.yul\":3339:3392   */\n      tag_99\n        /* \"#utility.yul\":3386:3391   */\n      dup3\n        /* \"#utility.yul\":3339:3392   */\n      tag_56\n      jump\t// in\n    tag_99:\n        /* \"#utility.yul\":3408:3493   */\n      tag_100\n        /* \"#utility.yul\":3486:3492   */\n      dup2\n        /* \"#utility.yul\":3481:3484   */\n      dup6\n        /* \"#utility.yul\":3408:3493   */\n      tag_57\n      jump\t// in\n    tag_100:\n        /* \"#utility.yul\":3401:3493   */\n      swap4\n      pop\n        /* \"#utility.yul\":3517:3572   */\n      tag_101\n        /* \"#utility.yul\":3566:3571   */\n      dup4\n        /* \"#utility.yul\":3517:3572   */\n      tag_58\n      jump\t// in\n    tag_101:\n        /* \"#utility.yul\":3595:3602   */\n      dup1\n        /* \"#utility.yul\":3626:3627   */\n      0x00\n        /* \"#utility.yul\":3611:3892   */\n    tag_102:\n        /* \"#utility.yul\":3636:3642   */\n      dup4\n        /* \"#utility.yul\":3633:3634   */\n      dup2\n        /* \"#utility.yul\":3630:3643   */\n      lt\n        /* \"#utility.yul\":3611:3892   */\n      iszero\n      tag_104\n      jumpi\n        /* \"#utility.yul\":3712:3718   */\n      dup2\n        /* \"#utility.yul\":3706:3719   */\n      mload\n        /* \"#utility.yul\":3739:3800   */\n      tag_105\n        /* \"#utility.yul\":3796:3799   */\n      dup9\n        /* \"#utility.yul\":3781:3794   */\n      dup3\n        /* \"#utility.yul\":3739:3800   */\n      tag_61\n      jump\t// in\n    tag_105:\n        /* \"#utility.yul\":3732:3800   */\n      swap8\n      pop\n        /* \"#utility.yul\":3823:3882   */\n      tag_106\n        /* \"#utility.yul\":3875:3881   */\n      dup4\n        /* \"#utility.yul\":3823:3882   */\n      tag_62\n      jump\t// in\n    tag_106:\n        /* \"#utility.yul\":3813:3882   */\n      swap3\n      pop\n        /* \"#utility.yul\":3671:3892   */\n      pop\n        /* \"#utility.yul\":3658:3659   */\n      0x01\n        /* \"#utility.yul\":3655:3656   */\n      dup2\n        /* \"#utility.yul\":3651:3660   */\n      add\n        /* \"#utility.yul\":3646:3660   */\n      swap1\n      pop\n        /* \"#utility.yul\":3611:3892   */\n      jump(tag_102)\n    tag_104:\n        /* \"#utility.yul\":3615:3629   */\n      pop\n        /* \"#utility.yul\":3908:3911   */\n      dup6\n        /* \"#utility.yul\":3901:3911   */\n      swap4\n      pop\n        /* \"#utility.yul\":3315:3917   */\n      pop\n      pop\n      pop\n        /* \"#utility.yul\":3193:3917   */\n      swap3\n      swap2\n      pop\n      pop\n      jump\t// out\n        /* \"#utility.yul\":3923:4292   */\n    tag_9:\n        /* \"#utility.yul\":4064:4068   */\n      0x00\n        /* \"#utility.yul\":4102:4104   */\n      0x20\n        /* \"#utility.yul\":4091:4100   */\n      dup3\n        /* \"#utility.yul\":4087:4105   */\n      add\n        /* \"#utility.yul\":4079:4105   */\n      swap1\n      pop\n        /* \"#utility.yul\":4151:4160   */\n      dup2\n        /* \"#utility.yul\":4145:4149   */\n      dup2\n        /* \"#utility.yul\":4141:4161   */\n      sub\n        /* \"#utility.yul\":4137:4138   */\n      0x00\n        /* \"#utility.yul\":4126:4135   */\n      dup4\n        /* \"#utility.yul\":4122:4139   */\n      add\n        /* \"#utility.yul\":4115:4162   */\n      mstore\n        /* \"#utility.yul\":4179:4285   */\n      tag_108\n        /* \"#utility.yul\":4280:4284   */\n      dup2\n        /* \"#utility.yul\":4271:4277   */\n      dup5\n        /* \"#utility.yul\":4179:4285   */\n      tag_63\n      jump\t// in\n    tag_108:\n        /* \"#utility.yul\":4171:4285   */\n      swap1\n      pop\n        /* \"#utility.yul\":3923:4292   */\n      swap3\n      swap2\n      pop\n      pop\n      jump\t// out\n        /* \"#utility.yul\":4298:4478   */\n    tag_16:\n        /* \"#utility.yul\":4346:4423   */\n      0x4e487b7100000000000000000000000000000000000000000000000000000000\n        /* \"#utility.yul\":4343:4344   */\n      0x00\n        /* \"#utility.yul\":4336:4424   */\n      mstore\n        /* \"#utility.yul\":4443:4447   */\n      0x32\n        /* \"#utility.yul\":4440:4441   */\n      0x04\n        /* \"#utility.yul\":4433:4448   */\n      mstore\n        /* \"#utility.yul\":4467:4471   */\n      0x24\n        /* \"#utility.yul\":4464:4465   */\n      0x00\n        /* \"#utility.yul\":4457:4472   */\n      revert\n        /* \"#utility.yul\":4484:4664   */\n    tag_64:\n        /* \"#utility.yul\":4532:4609   */\n      0x4e487b7100000000000000000000000000000000000000000000000000000000\n        /* \"#utility.yul\":4529:4530   */\n      0x00\n        /* \"#utility.yul\":4522:4610   */\n      mstore\n        /* \"#utility.yul\":4629:4633   */\n      0x11\n        /* \"#utility.yul\":4626:4627   */\n      0x04\n        /* \"#utility.yul\":4619:4634   */\n      mstore\n        /* \"#utility.yul\":4653:4657   */\n      0x24\n        /* \"#utility.yul\":4650:4651   */\n      0x00\n        /* \"#utility.yul\":4643:4658   */\n      revert\n        /* \"#utility.yul\":4670:4747   */\n    tag_65:\n        /* \"#utility.yul\":4707:4714   */\n      0x00\n        /* \"#utility.yul\":4736:4741   */\n      dup2\n        /* \"#utility.yul\":4725:4741   */\n      swap1\n      pop\n        /* \"#utility.yul\":4670:4747   */\n      swap2\n      swap1\n      pop\n      jump\t// out\n        /* \"#utility.yul\":4753:4986   */\n    tag_25:\n        /* \"#utility.yul\":4792:4795   */\n      0x00\n        /* \"#utility.yul\":4815:4839   */\n      tag_113\n        /* \"#utility.yul\":4833:4838   */\n      dup3\n        /* \"#utility.yul\":4815:4839   */\n      tag_65\n      jump\t// in\n    tag_113:\n        /* \"#utility.yul\":4806:4839   */\n      swap2\n      pop\n        /* \"#utility.yul\":4861:4927   */\n      0xffffffffffffffffffffffffffffffffffffffffffffffffffffffffffffffff\n        /* \"#utility.yul\":4854:4859   */\n      dup3\n        /* \"#utility.yul\":4851:4928   */\n      sub\n        /* \"#utility.yul\":4848:4951   */\n      tag_114\n      jumpi\n        /* \"#utility.yul\":4931:4949   */\n      tag_115\n      tag_64\n      jump\t// in\n    tag_115:\n        /* \"#utility.yul\":4848:4951   */\n    tag_114:\n        /* \"#utility.yul\":4978:4979   */\n      0x01\n        /* \"#utility.yul\":4971:4976   */\n      dup3\n        /* \"#utility.yul\":4967:4980   */\n      add\n        /* \"#utility.yul\":4960:4980   */\n      swap1\n      pop\n        /* \"#utility.yul\":4753:4986   */\n      swap2\n      swap1\n      pop\n      jump\t// out\n\n    auxdata: 0xa26469706673582212209a62c5afc41b81dc959c4f2563650e417bcb577b942529e5ea7144fe5b2dcfd364736f6c634300081e0033\n}\n",
				"bytecode": {
					"linkReferences": {},
					"object": "6080604052348015600e575f5ffd5b506104ec8061001c5f395ff3fe608060405234801561000f575f5ffd5b5060043610610029575f3560e01c806378c720441461002d575b5f5ffd5b610047600480360381019061004291906102ae565b61005d565b60405161005491906103ec565b60405180910390f35b6060805f8686905090505f8585905090505f5f90505f5f90505f5f90505b848310801561008957508382105b1561016e578888838181106100a1576100a061040c565b5b905060200201358b8b858181106100bb576100ba61040c565b5b9050602002013513610113578a8a848181106100da576100d961040c565b5b905060200201358682815181106100f4576100f361040c565b5b602002602001018181525050828061010b9061046f565b93505061015b565b8888838181106101265761012561040c565b5b905060200201358682815181106101405761013f61040c565b5b60200260200101818152505081806101579061046f565b9250505b80806101669061046f565b91505061007b565b5b848310156101d1578a8a8481811061018a5761018961040c565b5b905060200201358682815181106101a4576101a361040c565b5b60200260200101818152505082806101bb9061046f565b93505080806101c99061046f565b91505061016f565b5b83821015610234578888838181106101ed576101ec61040c565b5b905060200201358682815181106102075761020661040c565b5b602002602001018181525050818061021e9061046f565b925050808061022c9061046f565b9150506101d2565b859650505050505050949350505050565b5f5ffd5b5f5ffd5b5f5ffd5b5f5ffd5b5f5ffd5b5f5f83601f84011261026e5761026d61024d565b5b8235905067ffffffffffffffff81111561028b5761028a610251565b5b6020830191508360208202830111156102a7576102a6610255565b5b9250929050565b5f5f5f5f604085870312156102c6576102c5610245565b5b5f85013567ffffffffffffffff8111156102e3576102e2610249565b5b6102ef87828801610259565b9450945050602085013567ffffffffffffffff81111561031257610311610249565b5b61031e87828801610259565b925092505092959194509250565b5f81519050919050565b5f82825260208201905092915050565b5f819050602082019050919050565b5f819050919050565b61036781610355565b82525050565b5f610378838361035e565b60208301905092915050565b5f602082019050919050565b5f61039a8261032c565b6103a48185610336565b93506103af83610346565b805f5b838110156103df5781516103c6888261036d565b97506103d183610384565b9250506001810190506103b2565b5085935050505092915050565b5f6020820190508181035f8301526104048184610390565b905092915050565b7f4e487b71000000000000000000000000000000000000000000000000000000005f52603260045260245ffd5b7f4e487b71000000000000000000000000000000000000000000000000000000005f52601160045260245ffd5b5f819050919050565b5f61047982610466565b91507fffffffffffffffffffffffffffffffffffffffffffffffffffffffffffffffff82036104ab576104aa610439565b5b60018201905091905056fea26469706673582212209a62c5afc41b81dc959c4f2563650e417bcb577b942529e5ea7144fe5b2dcfd364736f6c634300081e0033",
					"opcodes": "PUSH1 0x80 PUSH1 0x40 MSTORE CALLVALUE DUP1 ISZERO PUSH1 0xE JUMPI PUSH0 PUSH0 REVERT JUMPDEST POP PUSH2 0x4EC DUP1 PUSH2 0x1C PUSH0 CODECOPY PUSH0 RETURN INVALID PUSH1 0x80 PUSH1 0x40 MSTORE CALLVALUE DUP1 ISZERO PUSH2 0xF JUMPI PUSH0 PUSH0 REVERT JUMPDEST POP PUSH1 0x4 CALLDATASIZE LT PUSH2 0x29 JUMPI PUSH0 CALLDATALOAD PUSH1 0xE0 SHR DUP1 PUSH4 0x78C72044 EQ PUSH2 0x2D JUMPI JUMPDEST PUSH0 PUSH0 REVERT JUMPDEST PUSH2 0x47 PUSH1 0x4 DUP1 CALLDATASIZE SUB DUP2 ADD SWAP1 PUSH2 0x42 SWAP2 SWAP1 PUSH2 0x2AE JUMP JUMPDEST PUSH2 0x5D JUMP JUMPDEST PUSH1 0x40 MLOAD PUSH2 0x54 SWAP2 SWAP1 PUSH2 0x3EC JUMP JUMPDEST PUSH1 0x40 MLOAD DUP1 SWAP2 SUB SWAP1 RETURN JUMPDEST PUSH1 0x60 DUP1 PUSH0 DUP7 DUP7 SWAP1 POP SWAP1 POP PUSH0 DUP6 DUP6 SWAP1 POP SWAP1 POP PUSH0 PUSH0 SWAP1 POP PUSH0 PUSH0 SWAP1 POP PUSH0 PUSH0 SWAP1 POP JUMPDEST DUP5 DUP4 LT DUP1 ISZERO PUSH2 0x89 JUMPI POP DUP4 DUP3 LT JUMPDEST ISZERO PUSH2 0x16E JUMPI DUP9 DUP9 DUP4 DUP2 DUP2 LT PUSH2 0xA1 JUMPI PUSH2 0xA0 PUSH2 0x40C JUMP JUMPDEST JUMPDEST SWAP1 POP PUSH1 0x20 MUL ADD CALLDATALOAD DUP12 DUP12 DUP6 DUP2 DUP2 LT PUSH2 0xBB JUMPI PUSH2 0xBA PUSH2 0x40C JUMP JUMPDEST JUMPDEST SWAP1 POP PUSH1 0x20 MUL ADD CALLDATALOAD SGT PUSH2 0x113 JUMPI DUP11 DUP11 DUP5 DUP2 DUP2 LT PUSH2 0xDA JUMPI PUSH2 0xD9 PUSH2 0x40C JUMP JUMPDEST JUMPDEST SWAP1 POP PUSH1 0x20 MUL ADD CALLDATALOAD DUP7 DUP3 DUP2 MLOAD DUP2 LT PUSH2 0xF4 JUMPI PUSH2 0xF3 PUSH2 0x40C JUMP JUMPDEST JUMPDEST PUSH1 0x20 MUL PUSH1 0x20 ADD ADD DUP2 DUP2 MSTORE POP POP DUP3 DUP1 PUSH2 0x10B SWAP1 PUSH2 0x46F JUMP JUMPDEST SWAP4 POP POP PUSH2 0x15B JUMP JUMPDEST DUP9 DUP9 DUP4 DUP2 DUP2 LT PUSH2 0x126 JUMPI PUSH2 0x125 PUSH2 0x40C JUMP JUMPDEST JUMPDEST SWAP1 POP PUSH1 0x20 MUL ADD CALLDATALOAD DUP7 DUP3 DUP2 MLOAD DUP2 LT PUSH2 0x140 JUMPI PUSH2 0x13F PUSH2 0x40C JUMP JUMPDEST JUMPDEST PUSH1 0x20 MUL PUSH1 0x20 ADD ADD DUP2 DUP2 MSTORE POP POP DUP2 DUP1 PUSH2 0x157 SWAP1 PUSH2 0x46F JUMP JUMPDEST SWAP3 POP POP JUMPDEST DUP1 DUP1 PUSH2 0x166 SWAP1 PUSH2 0x46F JUMP JUMPDEST SWAP2 POP POP PUSH2 0x7B JUMP JUMPDEST JUMPDEST DUP5 DUP4 LT ISZERO PUSH2 0x1D1 JUMPI DUP11 DUP11 DUP5 DUP2 DUP2 LT PUSH2 0x18A JUMPI PUSH2 0x189 PUSH2 0x40C JUMP JUMPDEST JUMPDEST SWAP1 POP PUSH1 0x20 MUL ADD CALLDATALOAD DUP7 DUP3 DUP2 MLOAD DUP2 LT PUSH2 0x1A4 JUMPI PUSH2 0x1A3 PUSH2 0x40C JUMP JUMPDEST JUMPDEST PUSH1 0x20 MUL PUSH1 0x20 ADD ADD DUP2 DUP2 MSTORE POP POP DUP3 DUP1 PUSH2 0x1BB SWAP1 PUSH2 0x46F JUMP JUMPDEST SWAP4 POP POP DUP1 DUP1 PUSH2 0x1C9 SWAP1 PUSH2 0x46F JUMP JUMPDEST SWAP2 POP POP PUSH2 0x16F JUMP JUMPDEST JUMPDEST DUP4 DUP3 LT ISZERO PUSH2 0x234 JUMPI DUP9 DUP9 DUP4 DUP2 DUP2 LT PUSH2 0x1ED JUMPI PUSH2 0x1EC PUSH2 0x40C JUMP JUMPDEST JUMPDEST SWAP1 POP PUSH1 0x20 MUL ADD CALLDATALOAD DUP7 DUP3 DUP2 MLOAD DUP2 LT PUSH2 0x207 JUMPI PUSH2 0x206 PUSH2 0x40C JUMP JUMPDEST JUMPDEST PUSH1 0x20 MUL PUSH1 0x20 ADD ADD DUP2 DUP2 MSTORE POP POP DUP2 DUP1 PUSH2 0x21E SWAP1 PUSH2 0x46F JUMP JUMPDEST SWAP3 POP POP DUP1 DUP1 PUSH2 0x22C SWAP1 PUSH2 0x46F JUMP JUMPDEST SWAP2 POP POP PUSH2 0x1D2 JUMP JUMPDEST DUP6 SWAP7 POP POP POP POP POP POP POP SWAP5 SWAP4 POP POP POP POP JUMP JUMPDEST PUSH0 PUSH0 REVERT JUMPDEST PUSH0 PUSH0 REVERT JUMPDEST PUSH0 PUSH0 REVERT JUMPDEST PUSH0 PUSH0 REVERT JUMPDEST PUSH0 PUSH0 REVERT JUMPDEST PUSH0 PUSH0 DUP4 PUSH1 0x1F DUP5 ADD SLT PUSH2 0x26E JUMPI PUSH2 0x26D PUSH2 0x24D JUMP JUMPDEST JUMPDEST DUP3 CALLDATALOAD SWAP1 POP PUSH8 0xFFFFFFFFFFFFFFFF DUP2 GT ISZERO PUSH2 0x28B JUMPI PUSH2 0x28A PUSH2 0x251 JUMP JUMPDEST JUMPDEST PUSH1 0x20 DUP4 ADD SWAP2 POP DUP4 PUSH1 0x20 DUP3 MUL DUP4 ADD GT ISZERO PUSH2 0x2A7 JUMPI PUSH2 0x2A6 PUSH2 0x255 JUMP JUMPDEST JUMPDEST SWAP3 POP SWAP3 SWAP1 POP JUMP JUMPDEST PUSH0 PUSH0 PUSH0 PUSH0 PUSH1 0x40 DUP6 DUP8 SUB SLT ISZERO PUSH2 0x2C6 JUMPI PUSH2 0x2C5 PUSH2 0x245 JUMP JUMPDEST JUMPDEST PUSH0 DUP6 ADD CALLDATALOAD PUSH8 0xFFFFFFFFFFFFFFFF DUP2 GT ISZERO PUSH2 0x2E3 JUMPI PUSH2 0x2E2 PUSH2 0x249 JUMP JUMPDEST JUMPDEST PUSH2 0x2EF DUP8 DUP3 DUP9 ADD PUSH2 0x259 JUMP JUMPDEST SWAP5 POP SWAP5 POP POP PUSH1 0x20 DUP6 ADD CALLDATALOAD PUSH8 0xFFFFFFFFFFFFFFFF DUP2 GT ISZERO PUSH2 0x312 JUMPI PUSH2 0x311 PUSH2 0x249 JUMP JUMPDEST JUMPDEST PUSH2 0x31E DUP8 DUP3 DUP9 ADD PUSH2 0x259 JUMP JUMPDEST SWAP3 POP SWAP3 POP POP SWAP3 SWAP6 SWAP2 SWAP5 POP SWAP3 POP JUMP JUMPDEST PUSH0 DUP2 MLOAD SWAP1 POP SWAP2 SWAP1 POP JUMP JUMPDEST PUSH0 DUP3 DUP3 MSTORE PUSH1 0x20 DUP3 ADD SWAP1 POP SWAP3 SWAP2 POP POP JUMP JUMPDEST PUSH0 DUP2 SWAP1 POP PUSH1 0x20 DUP3 ADD SWAP1 POP SWAP2 SWAP1 POP JUMP JUMPDEST PUSH0 DUP2 SWAP1 POP SWAP2 SWAP1 POP JUMP JUMPDEST PUSH2 0x367 DUP2 PUSH2 0x355 JUMP JUMPDEST DUP3 MSTORE POP POP JUMP JUMPDEST PUSH0 PUSH2 0x378 DUP4 DUP4 PUSH2 0x35E JUMP JUMPDEST PUSH1 0x20 DUP4 ADD SWAP1 POP SWAP3 SWAP2 POP POP JUMP JUMPDEST PUSH0 PUSH1 0x20 DUP3 ADD SWAP1 POP SWAP2 SWAP1 POP JUMP JUMPDEST PUSH0 PUSH2 0x39A DUP3 PUSH2 0x32C JUMP JUMPDEST PUSH2 0x3A4 DUP2 DUP6 PUSH2 0x336 JUMP JUMPDEST SWAP4 POP PUSH2 0x3AF DUP4 PUSH2 0x346 JUMP JUMPDEST DUP1 PUSH0 JUMPDEST DUP4 DUP2 LT ISZERO PUSH2 0x3DF JUMPI DUP2 MLOAD PUSH2 0x3C6 DUP9 DUP3 PUSH2 0x36D JUMP JUMPDEST SWAP8 POP PUSH2 0x3D1 DUP4 PUSH2 0x384 JUMP JUMPDEST SWAP3 POP POP PUSH1 0x1 DUP2 ADD SWAP1 POP PUSH2 0x3B2 JUMP JUMPDEST POP DUP6 SWAP4 POP POP POP POP SWAP3 SWAP2 POP POP JUMP JUMPDEST PUSH0 PUSH1 0x20 DUP3 ADD SWAP1 POP DUP2 DUP2 SUB PUSH0 DUP4 ADD MSTORE PUSH2 0x404 DUP2 DUP5 PUSH2 0x390 JUMP JUMPDEST SWAP1 POP SWAP3 SWAP2 POP POP JUMP JUMPDEST PUSH32 0x4E487B7100000000000000000000000000000000000000000000000000000000 PUSH0 MSTORE PUSH1 0x32 PUSH1 0x4 MSTORE PUSH1 0x24 PUSH0 REVERT JUMPDEST PUSH32 0x4E487B7100000000000000000000000000000000000000000000000000000000 PUSH0 MSTORE PUSH1 0x11 PUSH1 0x4 MSTORE PUSH1 0x24 PUSH0 REVERT JUMPDEST PUSH0 DUP2 SWAP1 POP SWAP2 SWAP1 POP JUMP JUMPDEST PUSH0 PUSH2 0x479 DUP3 PUSH2 0x466 JUMP JUMPDEST SWAP2 POP PUSH32 0xFFFFFFFFFFFFFFFFFFFFFFFFFFFFFFFFFFFFFFFFFFFFFFFFFFFFFFFFFFFFFFFF DUP3 SUB PUSH2 0x4AB JUMPI PUSH2 0x4AA PUSH2 0x439 JUMP JUMPDEST JUMPDEST PUSH1 0x1 DUP3 ADD SWAP1 POP SWAP2 SWAP1 POP JUMP INVALID LOG2 PUSH5 0x6970667358 0x22 SLT KECCAK256 SWAP11 PUSH3 0xC5AFC4 SHL DUP2 0xDC SWAP6 SWAP13 0x4F 0x25 PUSH4 0x650E417B 0xCB JUMPI PUSH28 0x942529E5EA7144FE5B2DCFD364736F6C634300081E00330000000000 "
				},
				"gasEstimates": {
					"creation": {
						"codeDepositCost": "252000",
						"executionCost": "292",
						"totalCost": "252292"
					},
					"external": {
						"mergeArrys(int256[],int256[])": "infinite"
					}
				},
				"methodIdentifiers": {
					"mergeArrys(int256[],int256[])": "78c72044"
				}
			},
			"storageLayout": {
				"storage": [],
				"types": null
			},
			"userdoc": {
				"kind": "user",
				"methods": {},
				"version": 1
			}
		}
	}
}